{
  "contractName": "Escrow",
  "abi": [
    {
      "inputs": [
        {
          "internalType": "uint256",
          "name": "_quorum",
          "type": "uint256"
        },
        {
          "internalType": "address payable",
          "name": "_investor",
          "type": "address"
        },
        {
          "internalType": "address payable",
          "name": "_funder",
          "type": "address"
        }
      ],
      "stateMutability": "payable",
      "type": "constructor"
    },
    {
      "anonymous": false,
      "inputs": [],
      "name": "RefundsClosed",
      "type": "event"
    },
    {
      "anonymous": false,
      "inputs": [],
      "name": "RefundsEnabled",
      "type": "event"
    },
    {
      "inputs": [],
      "name": "_state",
      "outputs": [
        {
          "internalType": "enum Escrow.State",
          "name": "",
          "type": "uint8"
        }
      ],
      "stateMutability": "view",
      "type": "function"
    },
    {
      "inputs": [],
      "name": "endDate",
      "outputs": [
        {
          "internalType": "uint256",
          "name": "",
          "type": "uint256"
        }
      ],
      "stateMutability": "view",
      "type": "function"
    },
    {
      "inputs": [],
      "name": "quorum",
      "outputs": [
        {
          "internalType": "uint256",
          "name": "",
          "type": "uint256"
        }
      ],
      "stateMutability": "view",
      "type": "function"
    },
    {
      "inputs": [],
      "name": "target",
      "outputs": [
        {
          "internalType": "uint256",
          "name": "",
          "type": "uint256"
        }
      ],
      "stateMutability": "view",
      "type": "function"
    },
    {
      "inputs": [],
      "name": "state",
      "outputs": [
        {
          "internalType": "enum Escrow.State",
          "name": "",
          "type": "uint8"
        }
      ],
      "stateMutability": "view",
      "type": "function"
    },
    {
      "inputs": [
        {
          "internalType": "uint256",
          "name": "id",
          "type": "uint256"
        },
        {
          "internalType": "address payable",
          "name": "to",
          "type": "address"
        },
        {
          "internalType": "uint256",
          "name": "amount",
          "type": "uint256"
        }
      ],
      "name": "sendTransfer",
      "outputs": [],
      "stateMutability": "nonpayable",
      "type": "function"
    },
    {
      "inputs": [],
      "name": "balanceOf",
      "outputs": [
        {
          "internalType": "uint256",
          "name": "",
          "type": "uint256"
        }
      ],
      "stateMutability": "view",
      "type": "function"
    },
    {
      "inputs": [],
      "name": "beneficiary",
      "outputs": [
        {
          "internalType": "address payable",
          "name": "",
          "type": "address"
        }
      ],
      "stateMutability": "view",
      "type": "function"
    },
    {
      "inputs": [],
      "name": "release",
      "outputs": [],
      "stateMutability": "nonpayable",
      "type": "function"
    },
    {
      "inputs": [],
      "name": "enableRefunds",
      "outputs": [],
      "stateMutability": "nonpayable",
      "type": "function"
    },
    {
      "inputs": [
        {
          "internalType": "uint256",
          "name": "id",
          "type": "uint256"
        },
        {
          "internalType": "address payable",
          "name": "investor",
          "type": "address"
        },
        {
          "internalType": "uint256",
          "name": "amount",
          "type": "uint256"
        }
      ],
      "name": "refund",
      "outputs": [],
      "stateMutability": "payable",
      "type": "function"
    }
  ],
  "bytecode": "0x6080604052604051610a0a380380610a0a8339818101604052606081101561002657600080fd5b81019080805190602001909291908051906020019092919080519060200190929190505050826001819055505050506109a6806100646000396000f3fe60806040526004361061009c5760003560e01c8063a1cb31b711610064578063a1cb31b714610166578063c19d93fb1461019c578063c24a0f8b146101d2578063d4b83992146101fd578063e796a6eb14610228578063ede7b307146102805761009c565b80631703a018146100a157806338af3eed146100cc578063722713f71461010d57806386d1a69f146101385780638c52dc411461014f575b600080fd5b3480156100ad57600080fd5b506100b66102e5565b6040518082815260200191505060405180910390f35b3480156100d857600080fd5b506100e16102eb565b604051808273ffffffffffffffffffffffffffffffffffffffff16815260200191505060405180910390f35b34801561011957600080fd5b50610122610315565b6040518082815260200191505060405180910390f35b34801561014457600080fd5b5061014d61031d565b005b34801561015b57600080fd5b506101646104e0565b005b34801561017257600080fd5b5061017b6105fc565b6040518082600281111561018b57fe5b815260200191505060405180910390f35b3480156101a857600080fd5b506101b161060f565b604051808260028111156101c157fe5b815260200191505060405180910390f35b3480156101de57600080fd5b506101e7610626565b6040518082815260200191505060405180910390f35b34801561020957600080fd5b5061021261062c565b6040518082815260200191505060405180910390f35b61027e6004803603606081101561023e57600080fd5b8101908080359060200190929190803573ffffffffffffffffffffffffffffffffffffffff16906020019092919080359060200190929190505050610632565b005b34801561028c57600080fd5b506102e3600480360360608110156102a357600080fd5b8101908080359060200190929190803573ffffffffffffffffffffffffffffffffffffffff16906020019092919080359060200190929190505050610781565b005b60015481565b6000600460019054906101000a900473ffffffffffffffffffffffffffffffffffffffff16905090565b600047905090565b6002544714610377576040517f08c379a000000000000000000000000000000000000000000000000000000000815260040180806020018281038252602f81526020018061091e602f913960400191505060405180910390fd5b60005442106103ee576040517f08c379a00000000000000000000000000000000000000000000000000000000081526004018080602001828103825260208152602001807f63616e6e6f742072656c6561736520616674657220746172676574206461746581525060200191505060405180910390fd5b600160028111156103fb57fe5b61040361060f565b600281111561040e57fe5b14610464576040517f08c379a00000000000000000000000000000000000000000000000000000000081526004018080602001828103825260388152602001806108e66038913960400191505060405180910390fd5b61046c6102eb565b73ffffffffffffffffffffffffffffffffffffffff166108fc479081150290604051600060405180830381858888f193505050501580156104b1573d6000803e3d6000fd5b507f088672c3a6e342f7cd94a65ba63b79df24a8973927b4d05d803c44bbf787d12f60405160405180910390a1565b6000544211610557576040517f08c379a00000000000000000000000000000000000000000000000000000000081526004018080602001828103825260188152602001807f546566756e64206166746572207461726765742064617465000000000000000081525060200191505060405180910390fd5b60025447106105ce576040517f08c379a00000000000000000000000000000000000000000000000000000000081526004018080602001828103825260128152602001807f546172676574206e6f742072656163686564000000000000000000000000000081525060200191505060405180910390fd5b7f599d8e5a83cffb867d051598c4d70e805d59802d8081c1c7d6dffc5b6aca2b8960405160405180910390a1565b600460009054906101000a900460ff1681565b6000600460009054906101000a900460ff16905090565b60005481565b60025481565b600254471061068c576040517f08c379a000000000000000000000000000000000000000000000000000000000815260040180806020018281038252602481526020018061094d6024913960400191505060405180910390fd5b80600360003373ffffffffffffffffffffffffffffffffffffffff1673ffffffffffffffffffffffffffffffffffffffff1681526020019081526020016000205401600360003373ffffffffffffffffffffffffffffffffffffffff1673ffffffffffffffffffffffffffffffffffffffff168152602001908152602001600020819055508173ffffffffffffffffffffffffffffffffffffffff166108fc829081150290604051600060405180830381858888f19350505050158015610757573d6000803e3d6000fd5b506002600460006101000a81548160ff0219169083600281111561077757fe5b0217905550505050565b6000600281111561078e57fe5b61079661060f565b60028111156107a157fe5b14610814576040517f08c379a000000000000000000000000000000000000000000000000000000000815260040180806020018281038252601c8152602001807f43616e206f6e6c7920696e76657374207768696c65206163746976650000000081525060200191505060405180910390fd5b80600360003373ffffffffffffffffffffffffffffffffffffffff1673ffffffffffffffffffffffffffffffffffffffff1681526020019081526020016000205403600360003373ffffffffffffffffffffffffffffffffffffffff1673ffffffffffffffffffffffffffffffffffffffff168152602001908152602001600020819055508173ffffffffffffffffffffffffffffffffffffffff166108fc829081150290604051600060405180830381858888f193505050501580156108df573d6000803e3d6000fd5b5050505056fe526566756e64457363726f773a2062656e65666963696172792063616e206f6e6c79207769746864726177207768696c6520636c6f73656463616e6e6f742072656c656173652066756e6473206265666f72652066756c6c20616d6f756e742069732073656e74726566756e64206f6e6c7920696620676f616c7320617265206e6f742072656163686564a2646970667358221220bb3211f8025dc0dd14588f81d553da45a39cb5e87d39d260b76acfd9956effbd64736f6c634300060c0033",
  "source": "/// SPDX-License-Identifier: GPL-3.0\npragma solidity >=0.6.1;\nimport \"./MyToken.sol\";\n// import \"./Ownable.sol\";\n\nlibrary AddressUtils {\n  function isContract(\n    address _addr\n  )\n    internal\n    view\n    returns (bool addressCheck)\n  {\n    uint256 size;\n\n    assembly { size := extcodesize(_addr) } // solhint-disable-line\n    addressCheck = size > 0;\n  }\n}\n\ncontract Escrow {\n  uint public endDate;\n  uint public quorum;\n  uint public target;\n  struct Transfer\n    {\n    address payable investor;\n    address payable funder;\n    uint _amount;\n\n    // address investor;\n    // bool sent;\n    // address payable to;\n  }\n\n\n\n mapping(address => uint256) balances;\n\n\n constructor(\n    uint _quorum,\n    address payable _investor,\n    address payable _funder)\n    public payable {\n    quorum = _quorum;\n  }\n\n  enum State { Active, Completed, Refunded}\n\n  event RefundsClosed();\n  event RefundsEnabled();\n\n    State public _state;\n    address payable private _beneficiary;\n  mapping(uint => Transfer) transfers;\n    uint index;\n\n    // Only payer can send money to Escrow\n    // address(this) is contact address\n    // address(this).balance is msg.value , send by payer\n\n\n\n  function state() public view virtual returns (State) {\n        return _state;\n    }\n\n  function sendTransfer(uint id, address payable to, uint amount) public virtual {\n    require(state() == State.Active, \"Can only invest while active\");\n    balances[msg.sender] = balances[msg.sender] - amount;\n    to.transfer(amount);\n    return;\n  }\n\n\n\n  function balanceOf() view public returns(uint) {\n    return address(this).balance;\n  }\n\n /**\n  * @return The beneficiary of the escrow.\n  */\n  function beneficiary() public view virtual returns (address payable) {\n        return _beneficiary;\n    }\n\n\n  function release() public virtual {\n    require(address(this).balance == target, 'cannot release funds before full amount is sent');\n    require(block.timestamp < endDate, 'cannot release after target date');\n    require(state() == State.Completed, \"RefundEscrow: beneficiary can only withdraw while closed\");\n    beneficiary().transfer(address(this).balance);\n    emit RefundsClosed();\n  }\n\n\n  function enableRefunds() public virtual {\n    require(block.timestamp > endDate, 'Tefund after target date');\n    require(address(this).balance < target, 'Target not reached');\n    emit RefundsEnabled();\n    }\n\n  function refund(uint id, address payable investor,  uint amount) public payable virtual {\n  require(address(this).balance < target, 'refund only if goals are not reached');\n   balances[msg.sender] = balances[msg.sender] + amount;\n   investor.transfer(amount);\n   _state = State.Refunded;\n  }\n}",
  "sourcePath": "/Users/miriamdong/lighthouse/w11-final/Defi/Blockchain/contracts/Escrow.sol",
  "compiler": {
    "name": "solc",
    "version": "0.6.12+commit.27d51765.Emscripten.clang"
  },
  "schemaVersion": "3.0.20",
  "updatedAt": "2021-05-13T23:18:21.911Z",
  "devdoc": {
    "kind": "dev",
    "methods": {
      "beneficiary()": {
        "returns": {
          "_0": "The beneficiary of the escrow."
        }
      }
    },
    "version": 1
  },
  "userdoc": {
    "kind": "user",
    "methods": {},
    "version": 1
  }
}