{
  "contractName": "Escrow",
  "abi": [
    {
      "inputs": [
        {
          "internalType": "address payable",
          "name": "_payee",
          "type": "address"
        },
        {
          "internalType": "uint256",
          "name": "_amount",
          "type": "uint256"
        }
      ],
      "stateMutability": "nonpayable",
      "type": "constructor"
    },
    {
      "inputs": [],
      "name": "amount",
      "outputs": [
        {
          "internalType": "uint256",
          "name": "",
          "type": "uint256"
        }
      ],
      "stateMutability": "view",
      "type": "function",
      "constant": true
    },
    {
      "inputs": [],
      "name": "payee",
      "outputs": [
        {
          "internalType": "address payable",
          "name": "",
          "type": "address"
        }
      ],
      "stateMutability": "view",
      "type": "function",
      "constant": true
    },
    {
      "inputs": [],
      "name": "payer",
      "outputs": [
        {
          "internalType": "address",
          "name": "",
          "type": "address"
        }
      ],
      "stateMutability": "view",
      "type": "function",
      "constant": true
    },
    {
      "inputs": [],
      "name": "deposit",
      "outputs": [],
      "stateMutability": "payable",
      "type": "function",
      "payable": true
    },
    {
      "inputs": [],
      "name": "release",
      "outputs": [],
      "stateMutability": "nonpayable",
      "type": "function"
    },
    {
      "inputs": [],
      "name": "balanceOf",
      "outputs": [
        {
          "internalType": "uint256",
          "name": "",
          "type": "uint256"
        }
      ],
      "stateMutability": "view",
      "type": "function",
      "constant": true
    }
  ],
  "bytecode": "0x608060405234801561001057600080fd5b5060405161043c38038061043c8339818101604052604081101561003357600080fd5b810190808051906020019092919080519060200190929190505050336000806101000a81548173ffffffffffffffffffffffffffffffffffffffff021916908373ffffffffffffffffffffffffffffffffffffffff16021790555081600160006101000a81548173ffffffffffffffffffffffffffffffffffffffff021916908373ffffffffffffffffffffffffffffffffffffffff160217905550806002819055505050610355806100e76000396000f3fe6080604052600436106100555760003560e01c8063123119cd1461005a578063722713f71461009b57806386d1a69f146100c6578063aa8c217c146100dd578063ae90b21314610108578063d0e30db014610149575b600080fd5b34801561006657600080fd5b5061006f610153565b604051808273ffffffffffffffffffffffffffffffffffffffff16815260200191505060405180910390f35b3480156100a757600080fd5b506100b0610177565b6040518082815260200191505060405180910390f35b3480156100d257600080fd5b506100db61017f565b005b3480156100e957600080fd5b506100f2610246565b6040518082815260200191505060405180910390f35b34801561011457600080fd5b5061011d61024c565b604051808273ffffffffffffffffffffffffffffffffffffffff16815260200191505060405180910390f35b610151610272565b005b60008054906101000a900473ffffffffffffffffffffffffffffffffffffffff1681565b600047905090565b60025447146101d9576040517f08c379a000000000000000000000000000000000000000000000000000000000815260040180806020018281038252602f8152602001806102d0602f913960400191505060405180910390fd5b600160009054906101000a900473ffffffffffffffffffffffffffffffffffffffff1673ffffffffffffffffffffffffffffffffffffffff166108fc6002549081150290604051600060405180830381858888f19350505050158015610243573d6000803e3d6000fd5b50565b60025481565b600160009054906101000a900473ffffffffffffffffffffffffffffffffffffffff1681565b6002544711156102cd576040517f08c379a00000000000000000000000000000000000000000000000000000000081526004018080602001828103825260218152602001806102ff6021913960400191505060405180910390fd5b56fe63616e6e6f742072656c656173652066756e6473206265666f72652066756c6c20616d6f756e742069732073656e7443616e742073656e64206d6f7265207468616e20657363726f7720616d6f756e74a2646970667358221220853fbd837e9bfe164e6dd1a89884e177f4a39042bb8145646ad8d079654d302864736f6c634300060c0033",
  "immutableReferences": {},
  "source": "// SPDX-License-Identifier: GPL-3.0\npragma solidity >=0.6.1;\n\n\ncontract Escrow{\n  address public payer;\n  address payable public payee;\n  uint public amount;\n\n  constructor(\n    address payable _payee,\n    uint _amount)\n    public {\n    payer = msg.sender;\n    payee = _payee;\n    amount = _amount;\n  }\n\n  function deposit() payable public {\n    // require(msg.sender == payer, 'Sender must be the payer');\n    require(address(this).balance <= amount, 'Cant send more than escrow amount');\n  }\n\n  function release() public {\n    require(address(this).balance == amount, 'cannot release funds before full amount is sent');\n    payee.transfer(amount);\n  }\n\n  function balanceOf() view public returns(uint) {\n    return address(this).balance;\n  }\n}",
  "sourcePath": "/Users/miriamdong/lighthouse/w11-final/Defi/Blockchain/contracts/Escrow.sol",
  "compiler": {
    "name": "solc",
    "version": "0.6.12+commit.27d51765.Emscripten.clang"
  },
  "schemaVersion": "3.4.1",
  "updatedAt": "2021-05-17T02:31:46.064Z",
  "networkType": "ethereum",
  "devdoc": {
    "kind": "dev",
    "methods": {},
    "version": 1
  },
  "userdoc": {
    "kind": "user",
    "methods": {},
    "version": 1
  }
}