{
  "contractName": "Escrow",
  "abi": [
    {
      "inputs": [
        {
          "internalType": "uint256",
          "name": "_quorum",
          "type": "uint256"
        }
      ],
      "stateMutability": "payable",
      "type": "constructor"
    },
    {
      "anonymous": false,
      "inputs": [],
      "name": "RefundsClosed",
      "type": "event"
    },
    {
      "anonymous": false,
      "inputs": [],
      "name": "RefundsEnabled",
      "type": "event"
    },
    {
      "inputs": [],
      "name": "_state",
      "outputs": [
        {
          "internalType": "enum Escrow.State",
          "name": "",
          "type": "uint8"
        }
      ],
      "stateMutability": "view",
      "type": "function"
    },
    {
      "inputs": [],
      "name": "endDate",
      "outputs": [
        {
          "internalType": "uint256",
          "name": "",
          "type": "uint256"
        }
      ],
      "stateMutability": "view",
      "type": "function"
    },
    {
      "inputs": [],
      "name": "quorum",
      "outputs": [
        {
          "internalType": "uint256",
          "name": "",
          "type": "uint256"
        }
      ],
      "stateMutability": "view",
      "type": "function"
    },
    {
      "inputs": [],
      "name": "target",
      "outputs": [
        {
          "internalType": "uint256",
          "name": "",
          "type": "uint256"
        }
      ],
      "stateMutability": "view",
      "type": "function"
    },
    {
      "inputs": [],
      "name": "state",
      "outputs": [
        {
          "internalType": "enum Escrow.State",
          "name": "",
          "type": "uint8"
        }
      ],
      "stateMutability": "view",
      "type": "function"
    },
    {
      "inputs": [
        {
          "internalType": "uint256",
          "name": "id",
          "type": "uint256"
        },
        {
          "internalType": "address payable",
          "name": "to",
          "type": "address"
        },
        {
          "internalType": "uint256",
          "name": "amount",
          "type": "uint256"
        }
      ],
      "name": "createNew",
      "outputs": [],
      "stateMutability": "nonpayable",
      "type": "function"
    },
    {
      "inputs": [],
      "name": "balanceOf",
      "outputs": [
        {
          "internalType": "uint256",
          "name": "",
          "type": "uint256"
        }
      ],
      "stateMutability": "view",
      "type": "function"
    },
    {
      "inputs": [],
      "name": "beneficiary",
      "outputs": [
        {
          "internalType": "address payable",
          "name": "",
          "type": "address"
        }
      ],
      "stateMutability": "view",
      "type": "function"
    },
    {
      "inputs": [],
      "name": "release",
      "outputs": [],
      "stateMutability": "nonpayable",
      "type": "function"
    },
    {
      "inputs": [],
      "name": "enableRefunds",
      "outputs": [],
      "stateMutability": "nonpayable",
      "type": "function"
    },
    {
      "inputs": [
        {
          "internalType": "uint256",
          "name": "id",
          "type": "uint256"
        },
        {
          "internalType": "address payable",
          "name": "investor",
          "type": "address"
        },
        {
          "internalType": "uint256",
          "name": "amount",
          "type": "uint256"
        }
      ],
      "name": "refund",
      "outputs": [],
      "stateMutability": "payable",
      "type": "function"
    }
  ],
  "bytecode": "0x60806040526040516109f43803806109f48339818101604052602081101561002657600080fd5b810190808051906020019092919050505080600181905550506109a68061004e6000396000f3fe60806040526004361061009c5760003560e01c80638c52dc41116100645780638c52dc41146101b4578063a1cb31b7146101cb578063c19d93fb14610201578063c24a0f8b14610237578063d4b8399214610262578063e796a6eb1461028d5761009c565b80631703a018146100a157806322f4342e146100cc57806338af3eed14610131578063722713f71461017257806386d1a69f1461019d575b600080fd5b3480156100ad57600080fd5b506100b66102e5565b6040518082815260200191505060405180910390f35b3480156100d857600080fd5b5061012f600480360360608110156100ef57600080fd5b8101908080359060200190929190803573ffffffffffffffffffffffffffffffffffffffff169060200190929190803590602001909291905050506102eb565b005b34801561013d57600080fd5b5061014661044f565b604051808273ffffffffffffffffffffffffffffffffffffffff16815260200191505060405180910390f35b34801561017e57600080fd5b50610187610479565b6040518082815260200191505060405180910390f35b3480156101a957600080fd5b506101b2610481565b005b3480156101c057600080fd5b506101c9610644565b005b3480156101d757600080fd5b506101e0610760565b604051808260028111156101f057fe5b815260200191505060405180910390f35b34801561020d57600080fd5b50610216610773565b6040518082600281111561022657fe5b815260200191505060405180910390f35b34801561024357600080fd5b5061024c61078a565b6040518082815260200191505060405180910390f35b34801561026e57600080fd5b50610277610790565b6040518082815260200191505060405180910390f35b6102e3600480360360608110156102a357600080fd5b8101908080359060200190929190803573ffffffffffffffffffffffffffffffffffffffff16906020019092919080359060200190929190505050610796565b005b60015481565b600060028111156102f857fe5b610300610773565b600281111561030b57fe5b1461037e576040517f08c379a000000000000000000000000000000000000000000000000000000000815260040180806020018281038252601c8152602001807f43616e206f6e6c7920696e76657374207768696c65206163746976650000000081525060200191505060405180910390fd5b80600360003373ffffffffffffffffffffffffffffffffffffffff1673ffffffffffffffffffffffffffffffffffffffff1681526020019081526020016000205403600360003373ffffffffffffffffffffffffffffffffffffffff1673ffffffffffffffffffffffffffffffffffffffff168152602001908152602001600020819055508173ffffffffffffffffffffffffffffffffffffffff166108fc829081150290604051600060405180830381858888f19350505050158015610449573d6000803e3d6000fd5b50505050565b6000600460019054906101000a900473ffffffffffffffffffffffffffffffffffffffff16905090565b600047905090565b60025447146104db576040517f08c379a000000000000000000000000000000000000000000000000000000000815260040180806020018281038252602f81526020018061091e602f913960400191505060405180910390fd5b6000544210610552576040517f08c379a00000000000000000000000000000000000000000000000000000000081526004018080602001828103825260208152602001807f63616e6e6f742072656c6561736520616674657220746172676574206461746581525060200191505060405180910390fd5b6001600281111561055f57fe5b610567610773565b600281111561057257fe5b146105c8576040517f08c379a00000000000000000000000000000000000000000000000000000000081526004018080602001828103825260388152602001806108e66038913960400191505060405180910390fd5b6105d061044f565b73ffffffffffffffffffffffffffffffffffffffff166108fc479081150290604051600060405180830381858888f19350505050158015610615573d6000803e3d6000fd5b507f088672c3a6e342f7cd94a65ba63b79df24a8973927b4d05d803c44bbf787d12f60405160405180910390a1565b60005442116106bb576040517f08c379a00000000000000000000000000000000000000000000000000000000081526004018080602001828103825260188152602001807f546566756e64206166746572207461726765742064617465000000000000000081525060200191505060405180910390fd5b6002544710610732576040517f08c379a00000000000000000000000000000000000000000000000000000000081526004018080602001828103825260128152602001807f546172676574206e6f742072656163686564000000000000000000000000000081525060200191505060405180910390fd5b7f599d8e5a83cffb867d051598c4d70e805d59802d8081c1c7d6dffc5b6aca2b8960405160405180910390a1565b600460009054906101000a900460ff1681565b6000600460009054906101000a900460ff16905090565b60005481565b60025481565b60025447106107f0576040517f08c379a000000000000000000000000000000000000000000000000000000000815260040180806020018281038252602481526020018061094d6024913960400191505060405180910390fd5b80600360003373ffffffffffffffffffffffffffffffffffffffff1673ffffffffffffffffffffffffffffffffffffffff1681526020019081526020016000205401600360003373ffffffffffffffffffffffffffffffffffffffff1673ffffffffffffffffffffffffffffffffffffffff168152602001908152602001600020819055508173ffffffffffffffffffffffffffffffffffffffff166108fc829081150290604051600060405180830381858888f193505050501580156108bb573d6000803e3d6000fd5b506002600460006101000a81548160ff021916908360028111156108db57fe5b021790555050505056fe526566756e64457363726f773a2062656e65666963696172792063616e206f6e6c79207769746864726177207768696c6520636c6f73656463616e6e6f742072656c656173652066756e6473206265666f72652066756c6c20616d6f756e742069732073656e74726566756e64206f6e6c7920696620676f616c7320617265206e6f742072656163686564a26469706673582212208a0d5b8a39924c91944926b711f207b2ec426602fcb01006c53a872682cf6dd964736f6c634300060c0033",
  "immutableReferences": {},
  "source": "/// SPDX-License-Identifier: GPL-3.0\npragma solidity >=0.6.1;\nimport \"./MyToken.sol\";\n\ncontract Escrow {\n  uint public endDate;\n  uint public quorum;\n  uint public target;\n  struct Transfer\n    {\n    address payable investor;\n    address payable funder;\n    uint _amount;\n}\n\n\n\n mapping(address => uint256) balances;\n\n\n constructor(\n    uint _quorum)\n    public payable {\n    quorum = _quorum;\n  }\n\n  enum State { Active, Completed, Refunded}\n\n  event RefundsClosed();\n  event RefundsEnabled();\n\n    State public _state;\n    address payable private _beneficiary;\n  mapping(uint => Transfer) transfers;\n    uint index;\n\n    // Only payer can send money to Escrow\n    // address(this) is contact address\n    // address(this).balance is msg.value , send by payer\n\n\n\n  function state() public view virtual returns (State) {\n        return _state;\n    }\n\n  function createNew(uint id, address payable to, uint amount) public virtual {\n    require(state() == State.Active, \"Can only invest while active\");\n    balances[msg.sender] = balances[msg.sender] - amount;\n    to.transfer(amount);\n    return;\n  }\n\n\n\n  function balanceOf() view public returns(uint) {\n    return address(this).balance;\n  }\n\n /**\n  * @return The beneficiary of the escrow.\n  */\n  function beneficiary() public view virtual returns (address payable) {\n        return _beneficiary;\n    }\n\n\n  function release() public virtual {\n    require(address(this).balance == target, 'cannot release funds before full amount is sent');\n    require(block.timestamp < endDate, 'cannot release after target date');\n    require(state() == State.Completed, \"RefundEscrow: beneficiary can only withdraw while closed\");\n    beneficiary().transfer(address(this).balance);\n    emit RefundsClosed();\n  }\n\n\n  function enableRefunds() public virtual {\n    require(block.timestamp > endDate, 'Tefund after target date');\n    require(address(this).balance < target, 'Target not reached');\n    emit RefundsEnabled();\n    }\n\n  function refund(uint id, address payable investor,  uint amount) public payable virtual {\n  require(address(this).balance < target, 'refund only if goals are not reached');\n   balances[msg.sender] = balances[msg.sender] + amount;\n   investor.transfer(amount);\n   _state = State.Refunded;\n  }\n}",
  "sourcePath": "/Users/miriamdong/lighthouse/w11-final/Defi/Blockchain/contracts/Escrow.sol",
  "compiler": {
    "name": "solc",
    "version": "0.6.12+commit.27d51765.Emscripten.clang"
  },
  "schemaVersion": "3.4.1",
  "updatedAt": "2021-05-14T08:18:52.151Z",
  "devdoc": {
    "kind": "dev",
    "methods": {
      "beneficiary()": {
        "returns": {
          "_0": "The beneficiary of the escrow."
        }
      }
    },
    "version": 1
  },
  "userdoc": {
    "kind": "user",
    "methods": {},
    "version": 1
  }
}