{
  "contractName": "MyWallet",
  "abi": [
    {
      "inputs": [
        {
          "internalType": "address[]",
          "name": "_approvers",
          "type": "address[]"
        },
        {
          "internalType": "uint256",
          "name": "_quorum",
          "type": "uint256"
        }
      ],
      "stateMutability": "payable",
      "type": "constructor"
    },
    {
      "inputs": [
        {
          "internalType": "uint256",
          "name": "",
          "type": "uint256"
        }
      ],
      "name": "approvers",
      "outputs": [
        {
          "internalType": "address",
          "name": "",
          "type": "address"
        }
      ],
      "stateMutability": "view",
      "type": "function"
    },
    {
      "inputs": [],
      "name": "quorum",
      "outputs": [
        {
          "internalType": "uint256",
          "name": "",
          "type": "uint256"
        }
      ],
      "stateMutability": "view",
      "type": "function"
    },
    {
      "inputs": [
        {
          "internalType": "uint256",
          "name": "amount",
          "type": "uint256"
        },
        {
          "internalType": "address payable",
          "name": "to",
          "type": "address"
        }
      ],
      "name": "createTransfer",
      "outputs": [],
      "stateMutability": "nonpayable",
      "type": "function"
    },
    {
      "inputs": [
        {
          "internalType": "uint256",
          "name": "id",
          "type": "uint256"
        }
      ],
      "name": "sendTransfer",
      "outputs": [],
      "stateMutability": "nonpayable",
      "type": "function"
    }
  ],
  "bytecode": "0x60806040526040516107013803806107018339818101604052604081101561002657600080fd5b810190808051604051939291908464010000000082111561004657600080fd5b8382019150602082018581111561005c57600080fd5b825186602082028301116401000000008211171561007957600080fd5b8083526020830192505050908051906020019060200280838360005b838110156100b0578082015181840152602081019050610095565b505050509050016040526020018051906020019092919050505081600090805190602001906100e09291906100ef565b508060018190555050506101b4565b828054828255906000526020600020908101928215610168579160200282015b828111156101675782518260006101000a81548173ffffffffffffffffffffffffffffffffffffffff021916908373ffffffffffffffffffffffffffffffffffffffff1602179055509160200191906001019061010f565b5b5090506101759190610179565b5090565b5b808211156101b057600081816101000a81549073ffffffffffffffffffffffffffffffffffffffff02191690555060010161017a565b5090565b61053e806101c36000396000f3fe608060405234801561001057600080fd5b506004361061004c5760003560e01c80631703a018146100515780634c12fa471461006f578063d1c68d1e146100bd578063d3650fb8146100eb575b600080fd5b610059610143565b6040518082815260200191505060405180910390f35b6100bb6004803603604081101561008557600080fd5b8101908080359060200190929190803573ffffffffffffffffffffffffffffffffffffffff169060200190929190505050610149565b005b6100e9600480360360208110156100d357600080fd5b810190808035906020019092919050505061023f565b005b6101176004803603602081101561010157600080fd5b81019080803590602001909291905050506104cc565b604051808273ffffffffffffffffffffffffffffffffffffffff16815260200191505060405180910390f35b60015481565b6040518060a0016040528060035481526020018381526020018273ffffffffffffffffffffffffffffffffffffffff1681526020016000815260200160001515815250600260006003548152602001908152602001600020600082015181600001556020820151816001015560408201518160020160006101000a81548173ffffffffffffffffffffffffffffffffffffffff021916908373ffffffffffffffffffffffffffffffffffffffff1602179055506060820151816003015560808201518160040160006101000a81548160ff0219169083151502179055509050506003600081548092919060010191905055505050565b600015156002600083815260200190815260200160002060040160009054906101000a900460ff161515146102dc576040517f08c379a000000000000000000000000000000000000000000000000000000000815260040180806020018281038252601e8152602001807f7472616e736665722068617320616c7265616479206265656e2073656e74000081525060200191505060405180910390fd5b60001515600460003373ffffffffffffffffffffffffffffffffffffffff1673ffffffffffffffffffffffffffffffffffffffff168152602001908152602001600020600083815260200190815260200160002060009054906101000a900460ff16151514156103d6576001600460003373ffffffffffffffffffffffffffffffffffffffff1673ffffffffffffffffffffffffffffffffffffffff168152602001908152602001600020600083815260200190815260200160002060006101000a81548160ff02191690831515021790555060026000828152602001908152602001600020600301600081548092919060010191905055505b6001546002600083815260200190815260200160002060030154106104c85760016002600083815260200190815260200160002060040160006101000a81548160ff02191690831515021790555060006002600083815260200190815260200160002060020160009054906101000a900473ffffffffffffffffffffffffffffffffffffffff1690506000600260008481526020019081526020016000206001015490508173ffffffffffffffffffffffffffffffffffffffff166108fc829081150290604051600060405180830381858888f193505050501580156104c0573d6000803e3d6000fd5b5050506104c9565b5b50565b600081815481106104d957fe5b906000526020600020016000915054906101000a900473ffffffffffffffffffffffffffffffffffffffff168156fea2646970667358221220ce5a6beed07abcec91818bd14a8572ed672273a9b98d961a811039fb32a20bcb64736f6c634300060c0033",
  "immutableReferences": {},
  "source": "// SPDX-License-Identifier: GPL-3.0\npragma solidity ^0.6.1;\n\nlibrary AddressUtils {\n  function isContract(\n    address _addr\n  )\n    internal\n    view\n    returns (bool addressCheck)\n  {\n    uint256 size;\n\n    assembly { size := extcodesize(_addr) } // solhint-disable-line\n    addressCheck = size > 0;\n  }\n\n}\n\ncontract MyWallet {\n  address[] public approvers;\n  uint public quorum;\n  struct Transfer {\n    uint id;\n    uint amount;\n    address payable to;\n    uint approvals;\n    bool sent;\n  }\n  mapping(uint => Transfer) transfers;\n  uint nextId;\n  mapping(address => mapping(uint => bool)) approvals;\n\n  constructor(address[] memory _approvers, uint _quorum) public payable {\n    approvers = _approvers;\n    quorum = _quorum;\n  }\n\n  function createTransfer(uint amount, address payable to) external {\n    transfers[nextId] = Transfer(\n      nextId,\n      amount,\n      to,\n      0,\n      false\n    );\n    nextId++;\n  }\n\n  function sendTransfer(uint id) external {\n    require(transfers[id].sent == false, 'transfer has already been sent');\n   if(approvals[msg.sender][id] == false) {\n      approvals[msg.sender][id] = true;\n      transfers[id].approvals++;\n    }\n    if(transfers[id].approvals >= quorum) {\n      transfers[id].sent = true;\n      address payable to = transfers[id].to;\n      uint amount = transfers[id].amount;\n      to.transfer(amount);\n      return;\n    }\n  }\n\n  modifier onlyApprover() {\n    bool allowed = false;\n    for(uint i; i < approvers.length; i++) {\n      if(approvers[i] == msg.sender) {\n        allowed = true;\n      }\n    }\n    require(allowed == true, 'only approver allowed');\n    _;\n  }\n}",
  "sourcePath": "/Users/miriamdong/lighthouse/w11-final/Defi/Blockchain/contracts/MyWallet.sol",
  "compiler": {
    "name": "solc",
    "version": "0.6.12+commit.27d51765.Emscripten.clang"
  },
  "schemaVersion": "3.4.1",
  "updatedAt": "2021-05-13T04:24:26.174Z",
  "devdoc": {
    "kind": "dev",
    "methods": {},
    "version": 1
  },
  "userdoc": {
    "kind": "user",
    "methods": {},
    "version": 1
  }
}