{
  "contractName": "MyWallet",
  "abi": [
    {
      "inputs": [],
      "stateMutability": "payable",
      "type": "constructor"
    },
    {
      "inputs": [
        {
          "internalType": "uint256",
          "name": "",
          "type": "uint256"
        }
      ],
      "name": "transfers",
      "outputs": [
        {
          "internalType": "uint256",
          "name": "id",
          "type": "uint256"
        },
        {
          "internalType": "uint256",
          "name": "amount",
          "type": "uint256"
        },
        {
          "internalType": "address payable",
          "name": "to",
          "type": "address"
        },
        {
          "internalType": "bool",
          "name": "sent",
          "type": "bool"
        }
      ],
      "stateMutability": "view",
      "type": "function"
    },
    {
      "stateMutability": "payable",
      "type": "receive"
    },
    {
      "inputs": [],
      "name": "getTransfers",
      "outputs": [
        {
          "components": [
            {
              "internalType": "uint256",
              "name": "id",
              "type": "uint256"
            },
            {
              "internalType": "uint256",
              "name": "amount",
              "type": "uint256"
            },
            {
              "internalType": "address payable",
              "name": "to",
              "type": "address"
            },
            {
              "internalType": "bool",
              "name": "sent",
              "type": "bool"
            }
          ],
          "internalType": "struct MyWallet.Transfer[]",
          "name": "",
          "type": "tuple[]"
        }
      ],
      "stateMutability": "view",
      "type": "function"
    },
    {
      "inputs": [
        {
          "internalType": "uint256",
          "name": "amount",
          "type": "uint256"
        },
        {
          "internalType": "address payable",
          "name": "to",
          "type": "address"
        }
      ],
      "name": "createTransfer",
      "outputs": [],
      "stateMutability": "nonpayable",
      "type": "function"
    }
  ],
  "bytecode": "0x6080604052610611806100136000396000f3fe6080604052600436106100385760003560e01c80632f65142c146100445780634c12fa471461006f5780639377d711146100985761003f565b3661003f57005b600080fd5b34801561005057600080fd5b506100596100d8565b60405161006691906104c5565b60405180910390f35b34801561007b57600080fd5b5061009660048036038101906100919190610364565b6101bc565b005b3480156100a457600080fd5b506100bf60048036038101906100ba919061033b565b6102a7565b6040516100cf94939291906104e7565b60405180910390f35b60606000805480602002602001604051908101604052809291908181526020016000905b828210156101b3578382906000526020600020906003020160405180608001604052908160008201548152602001600182015481526020016002820160009054906101000a900473ffffffffffffffffffffffffffffffffffffffff1673ffffffffffffffffffffffffffffffffffffffff1673ffffffffffffffffffffffffffffffffffffffff1681526020016002820160149054906101000a900460ff161515151581525050815260200190600101906100fc565b50505050905090565b6000604051806080016040528060008054905081526020018481526020018373ffffffffffffffffffffffffffffffffffffffff168152602001600015158152509080600181540180825580915050600190039060005260206000209060030201600090919091909150600082015181600001556020820151816001015560408201518160020160006101000a81548173ffffffffffffffffffffffffffffffffffffffff021916908373ffffffffffffffffffffffffffffffffffffffff16021790555060608201518160020160146101000a81548160ff02191690831515021790555050505050565b600081815481106102b457fe5b90600052602060002090600302016000915090508060000154908060010154908060020160009054906101000a900473ffffffffffffffffffffffffffffffffffffffff16908060020160149054906101000a900460ff16905084565b600081359050610320816105ad565b92915050565b600081359050610335816105c4565b92915050565b60006020828403121561034d57600080fd5b600061035b84828501610326565b91505092915050565b6000806040838503121561037757600080fd5b600061038585828601610326565b925050602061039685828601610311565b9150509250929050565b60006103ac8383610452565b60808301905092915050565b6103c181610565565b82525050565b6103d081610565565b82525050565b60006103e18261053c565b6103eb8185610554565b93506103f68361052c565b8060005b8381101561042757815161040e88826103a0565b975061041983610547565b9250506001810190506103fa565b5085935050505092915050565b61043d81610577565b82525050565b61044c81610577565b82525050565b60808201600082015161046860008501826104a7565b50602082015161047b60208501826104a7565b50604082015161048e60408501826103b8565b5060608201516104a16060850182610434565b50505050565b6104b0816105a3565b82525050565b6104bf816105a3565b82525050565b600060208201905081810360008301526104df81846103d6565b905092915050565b60006080820190506104fc60008301876104b6565b61050960208301866104b6565b61051660408301856103c7565b6105236060830184610443565b95945050505050565b6000819050602082019050919050565b600081519050919050565b6000602082019050919050565b600082825260208201905092915050565b600061057082610583565b9050919050565b60008115159050919050565b600073ffffffffffffffffffffffffffffffffffffffff82169050919050565b6000819050919050565b6105b681610565565b81146105c157600080fd5b50565b6105cd816105a3565b81146105d857600080fd5b5056fea264697066735822122031a3f6e2b515a783ede0c12987df7a4158b2c74caaf509895be5b63186875db864736f6c634300060c0033",
  "immutableReferences": {},
  "source": "// SPDX-License-Identifier: GPL-3.0\npragma solidity ^0.6.1;\npragma experimental ABIEncoderV2;\n\ncontract MyWallet {\n  struct Transfer {\n    uint id;\n    uint amount;\n    address payable to;\n    bool sent;\n  }\n\n  Transfer[] public transfers;\n\n  constructor() public payable {\n  }\n\n//  function getApprovers() external view returns(address[] memory){\n//         return approvers;\n//     }\n\n    function getTransfers() external view returns (Transfer[] memory){\n        return transfers;\n    }\n\n  function createTransfer(uint amount, address payable to) external {\n    transfers.push(Transfer(\n      transfers.length,\n      amount,\n      to,\n      false\n    ));\n    }\n\n\n  // function approveTransfer(uint id) external onlyApprover() {\n  //       require(transfers[id].sent == false, \"transfer has already been sent\");\n  //       require(approvals[msg.sender][id]== false, \"cannot approve transfer twice\");\n\n  //     approvals[msg.sender][id] = true;\n  //     transfers[id].approvals++;\n\n  //       if(transfers[id].approvals >= quorum){\n  //           transfers[id].sent = true;\n  //           address payable to = transfers[id].to;\n  //           uint amount = transfers[id].amount;\n  //           to.transfer(amount);\n  //       }\n  //   }\n\n  receive() external payable {}\n\n  // modifier onlyApprover() {\n  //   bool allowed = false;\n  //   for(uint i = 0; i < approvers.length; i++) {\n  //     if(approvers[i] == msg.sender) {\n  //       allowed = true;\n  //     }\n  //   }\n  //   require(allowed == true, 'only approver allowed');\n  //   _;\n  // }\n}",
  "sourcePath": "/Users/miriamdong/lighthouse/w11-final/Defi/Blockchain/contracts/MyWallet.sol",
  "compiler": {
    "name": "solc",
    "version": "0.6.12+commit.27d51765.Emscripten.clang"
  },
  "schemaVersion": "3.4.1",
  "updatedAt": "2021-05-14T08:18:52.153Z",
  "devdoc": {
    "kind": "dev",
    "methods": {},
    "version": 1
  },
  "userdoc": {
    "kind": "user",
    "methods": {},
    "version": 1
  }
}