{
  "contractName": "Wallet",
  "abi": [
    {
      "inputs": [
        {
          "internalType": "address[]",
          "name": "_approvers",
          "type": "address[]"
        },
        {
          "internalType": "uint256",
          "name": "_quorum",
          "type": "uint256"
        }
      ],
      "stateMutability": "nonpayable",
      "type": "constructor"
    },
    {
      "inputs": [
        {
          "internalType": "address",
          "name": "",
          "type": "address"
        },
        {
          "internalType": "uint256",
          "name": "",
          "type": "uint256"
        }
      ],
      "name": "approvals",
      "outputs": [
        {
          "internalType": "bool",
          "name": "",
          "type": "bool"
        }
      ],
      "stateMutability": "view",
      "type": "function"
    },
    {
      "inputs": [
        {
          "internalType": "uint256",
          "name": "",
          "type": "uint256"
        }
      ],
      "name": "approvers",
      "outputs": [
        {
          "internalType": "address",
          "name": "",
          "type": "address"
        }
      ],
      "stateMutability": "view",
      "type": "function"
    },
    {
      "inputs": [],
      "name": "quorum",
      "outputs": [
        {
          "internalType": "uint256",
          "name": "",
          "type": "uint256"
        }
      ],
      "stateMutability": "view",
      "type": "function"
    },
    {
      "inputs": [
        {
          "internalType": "uint256",
          "name": "",
          "type": "uint256"
        }
      ],
      "name": "transfers",
      "outputs": [
        {
          "internalType": "uint256",
          "name": "id",
          "type": "uint256"
        },
        {
          "internalType": "uint256",
          "name": "amount",
          "type": "uint256"
        },
        {
          "internalType": "address payable",
          "name": "to",
          "type": "address"
        },
        {
          "internalType": "uint256",
          "name": "approvals",
          "type": "uint256"
        },
        {
          "internalType": "bool",
          "name": "sent",
          "type": "bool"
        }
      ],
      "stateMutability": "view",
      "type": "function"
    },
    {
      "stateMutability": "payable",
      "type": "receive"
    },
    {
      "inputs": [],
      "name": "getApprovers",
      "outputs": [
        {
          "internalType": "address[]",
          "name": "",
          "type": "address[]"
        }
      ],
      "stateMutability": "view",
      "type": "function"
    },
    {
      "inputs": [],
      "name": "getTransfers",
      "outputs": [
        {
          "components": [
            {
              "internalType": "uint256",
              "name": "id",
              "type": "uint256"
            },
            {
              "internalType": "uint256",
              "name": "amount",
              "type": "uint256"
            },
            {
              "internalType": "address payable",
              "name": "to",
              "type": "address"
            },
            {
              "internalType": "uint256",
              "name": "approvals",
              "type": "uint256"
            },
            {
              "internalType": "bool",
              "name": "sent",
              "type": "bool"
            }
          ],
          "internalType": "struct Wallet.Transfer[]",
          "name": "",
          "type": "tuple[]"
        }
      ],
      "stateMutability": "view",
      "type": "function"
    },
    {
      "inputs": [
        {
          "internalType": "uint256",
          "name": "amount",
          "type": "uint256"
        },
        {
          "internalType": "address payable",
          "name": "to",
          "type": "address"
        }
      ],
      "name": "createTransfer",
      "outputs": [],
      "stateMutability": "nonpayable",
      "type": "function"
    },
    {
      "inputs": [
        {
          "internalType": "uint256",
          "name": "id",
          "type": "uint256"
        }
      ],
      "name": "approveTransfer",
      "outputs": [],
      "stateMutability": "nonpayable",
      "type": "function"
    }
  ],
  "bytecode": "0x60806040523480156200001157600080fd5b506040516200131f3803806200131f8339818101604052620000379190810190620001ef565b81600090805190602001906200004f9291906200005f565b5080600181905550505062000312565b828054828255906000526020600020908101928215620000db579160200282015b82811115620000da5782518260006101000a81548173ffffffffffffffffffffffffffffffffffffffff021916908373ffffffffffffffffffffffffffffffffffffffff1602179055509160200191906001019062000080565b5b509050620000ea9190620000ee565b5090565b6200013191905b808211156200012d57600081816101000a81549073ffffffffffffffffffffffffffffffffffffffff021916905550600101620000f5565b5090565b90565b6000815190506200014581620002de565b92915050565b600082601f8301126200015d57600080fd5b8151620001746200016e8262000277565b62000249565b915081818352602084019350602081019050838560208402820111156200019a57600080fd5b60005b83811015620001ce5781620001b3888262000134565b8452602084019350602083019250506001810190506200019d565b5050505092915050565b600081519050620001e981620002f8565b92915050565b600080604083850312156200020357600080fd5b600083015167ffffffffffffffff8111156200021e57600080fd5b6200022c858286016200014b565b92505060206200023f85828601620001d8565b9150509250929050565b6000604051905081810181811067ffffffffffffffff821117156200026d57600080fd5b8060405250919050565b600067ffffffffffffffff8211156200028f57600080fd5b602082029050602081019050919050565b6000620002ad82620002b4565b9050919050565b600073ffffffffffffffffffffffffffffffffffffffff82169050919050565b6000819050919050565b620002e981620002a0565b8114620002f557600080fd5b50565b6200030381620002d4565b81146200030f57600080fd5b50565b610ffd80620003226000396000f3fe60806040526004361061007f5760003560e01c80639377d7111161004e5780639377d71114610135578063cacca4a014610176578063d3650fb81461019f578063ffabc673146101dc57610086565b80631703a0181461008b5780632f65142c146100b65780634c12fa47146100e15780636cb3e8ef1461010a57610086565b3661008657005b600080fd5b34801561009757600080fd5b506100a0610219565b6040516100ad9190610e37565b60405180910390f35b3480156100c257600080fd5b506100cb61021f565b6040516100d89190610d9a565b60405180910390f35b3480156100ed57600080fd5b5061010860048036036101039190810190610a95565b61030d565b005b34801561011657600080fd5b5061011f6104e7565b60405161012c9190610d78565b60405180910390f35b34801561014157600080fd5b5061015c60048036036101579190810190610a6c565b610575565b60405161016d959493929190610e52565b60405180910390f35b34801561018257600080fd5b5061019d60048036036101989190810190610a6c565b6105e5565b005b3480156101ab57600080fd5b506101c660048036036101c19190810190610a6c565b610986565b6040516101d39190610d5d565b60405180910390f35b3480156101e857600080fd5b5061020360048036036101fe9190810190610a30565b6109c2565b6040516102109190610dbc565b60405180910390f35b60015481565b60606002805480602002602001604051908101604052809291908181526020016000905b8282101561030457838290600052602060002090600502016040518060a001604052908160008201548152602001600182015481526020016002820160009054906101000a900473ffffffffffffffffffffffffffffffffffffffff1673ffffffffffffffffffffffffffffffffffffffff1673ffffffffffffffffffffffffffffffffffffffff168152602001600382015481526020016004820160009054906101000a900460ff16151515158152505081526020019060010190610243565b50505050905090565b600080905060008090505b6000805490508110156103a2573373ffffffffffffffffffffffffffffffffffffffff166000828154811061034957fe5b9060005260206000200160009054906101000a900473ffffffffffffffffffffffffffffffffffffffff1673ffffffffffffffffffffffffffffffffffffffff16141561039557600191505b8080600101915050610318565b5060011515811515146103ea576040517f08c379a00000000000000000000000000000000000000000000000000000000081526004016103e190610df7565b60405180910390fd5b60026040518060a0016040528060028054905081526020018581526020018473ffffffffffffffffffffffffffffffffffffffff16815260200160008152602001600015158152509080600181540180825580915050600190039060005260206000209060050201600090919091909150600082015181600001556020820151816001015560408201518160020160006101000a81548173ffffffffffffffffffffffffffffffffffffffff021916908373ffffffffffffffffffffffffffffffffffffffff1602179055506060820151816003015560808201518160040160006101000a81548160ff0219169083151502179055505050505050565b6060600080548060200260200160405190810160405280929190818152602001828054801561056b57602002820191906000526020600020905b8160009054906101000a900473ffffffffffffffffffffffffffffffffffffffff1673ffffffffffffffffffffffffffffffffffffffff1681526020019060010190808311610521575b5050505050905090565b6002818154811061058257fe5b90600052602060002090600502016000915090508060000154908060010154908060020160009054906101000a900473ffffffffffffffffffffffffffffffffffffffff16908060030154908060040160009054906101000a900460ff16905085565b600080905060008090505b60008054905081101561067a573373ffffffffffffffffffffffffffffffffffffffff166000828154811061062157fe5b9060005260206000200160009054906101000a900473ffffffffffffffffffffffffffffffffffffffff1673ffffffffffffffffffffffffffffffffffffffff16141561066d57600191505b80806001019150506105f0565b5060011515811515146106c2576040517f08c379a00000000000000000000000000000000000000000000000000000000081526004016106b990610df7565b60405180910390fd5b60001515600283815481106106d357fe5b906000526020600020906005020160040160009054906101000a900460ff16151514610734576040517f08c379a000000000000000000000000000000000000000000000000000000000815260040161072b90610dd7565b60405180910390fd5b60001515600360003373ffffffffffffffffffffffffffffffffffffffff1673ffffffffffffffffffffffffffffffffffffffff168152602001908152602001600020600084815260200190815260200160002060009054906101000a900460ff161515146107d8576040517f08c379a00000000000000000000000000000000000000000000000000000000081526004016107cf90610e17565b60405180910390fd5b6001600360003373ffffffffffffffffffffffffffffffffffffffff1673ffffffffffffffffffffffffffffffffffffffff168152602001908152602001600020600084815260200190815260200160002060006101000a81548160ff0219169083151502179055506002828154811061084e57fe5b9060005260206000209060050201600301600081548092919060010191905055506001546002838154811061087f57fe5b90600052602060002090600502016003015410610981576001600283815481106108a557fe5b906000526020600020906005020160040160006101000a81548160ff0219169083151502179055506000600283815481106108dc57fe5b906000526020600020906005020160020160009054906101000a900473ffffffffffffffffffffffffffffffffffffffff16905060006002848154811061091f57fe5b90600052602060002090600502016001015490508173ffffffffffffffffffffffffffffffffffffffff166108fc829081150290604051600060405180830381858888f19350505050158015610979573d6000803e3d6000fd5b505050610982565b5b5050565b6000818154811061099357fe5b906000526020600020016000915054906101000a900473ffffffffffffffffffffffffffffffffffffffff1681565b60036020528160005260406000206020528060005260406000206000915091509054906101000a900460ff1681565b600081359050610a0081610f82565b92915050565b600081359050610a1581610f99565b92915050565b600081359050610a2a81610fb0565b92915050565b60008060408385031215610a4357600080fd5b6000610a51858286016109f1565b9250506020610a6285828601610a1b565b9150509250929050565b600060208284031215610a7e57600080fd5b6000610a8c84828501610a1b565b91505092915050565b60008060408385031215610aa857600080fd5b6000610ab685828601610a1b565b9250506020610ac785828601610a06565b9150509250929050565b6000610add8383610b1f565b60208301905092915050565b6000610af58383610cd7565b60a08301905092915050565b610b0a81610f3a565b82525050565b610b1981610f3a565b82525050565b610b2881610f28565b82525050565b610b3781610f28565b82525050565b6000610b4882610ec5565b610b528185610ef5565b9350610b5d83610ea5565b8060005b83811015610b8e578151610b758882610ad1565b9750610b8083610edb565b925050600181019050610b61565b5085935050505092915050565b6000610ba682610ed0565b610bb08185610f06565b9350610bbb83610eb5565b8060005b83811015610bec578151610bd38882610ae9565b9750610bde83610ee8565b925050600181019050610bbf565b5085935050505092915050565b610c0281610f4c565b82525050565b610c1181610f4c565b82525050565b6000610c24601e83610f17565b91507f7472616e736665722068617320616c7265616479206265656e2073656e7400006000830152602082019050919050565b6000610c64601583610f17565b91507f6f6e6c7920617070726f76657220616c6c6f77656400000000000000000000006000830152602082019050919050565b6000610ca4601d83610f17565b91507f63616e6e6f7420617070726f7665207472616e736665722074776963650000006000830152602082019050919050565b60a082016000820151610ced6000850182610d3f565b506020820151610d006020850182610d3f565b506040820151610d136040850182610b01565b506060820151610d266060850182610d3f565b506080820151610d396080850182610bf9565b50505050565b610d4881610f78565b82525050565b610d5781610f78565b82525050565b6000602082019050610d726000830184610b2e565b92915050565b60006020820190508181036000830152610d928184610b3d565b905092915050565b60006020820190508181036000830152610db48184610b9b565b905092915050565b6000602082019050610dd16000830184610c08565b92915050565b60006020820190508181036000830152610df081610c17565b9050919050565b60006020820190508181036000830152610e1081610c57565b9050919050565b60006020820190508181036000830152610e3081610c97565b9050919050565b6000602082019050610e4c6000830184610d4e565b92915050565b600060a082019050610e676000830188610d4e565b610e746020830187610d4e565b610e816040830186610b10565b610e8e6060830185610d4e565b610e9b6080830184610c08565b9695505050505050565b6000819050602082019050919050565b6000819050602082019050919050565b600081519050919050565b600081519050919050565b6000602082019050919050565b6000602082019050919050565b600082825260208201905092915050565b600082825260208201905092915050565b600082825260208201905092915050565b6000610f3382610f58565b9050919050565b6000610f4582610f58565b9050919050565b60008115159050919050565b600073ffffffffffffffffffffffffffffffffffffffff82169050919050565b6000819050919050565b610f8b81610f28565b8114610f9657600080fd5b50565b610fa281610f3a565b8114610fad57600080fd5b50565b610fb981610f78565b8114610fc457600080fd5b5056fea2646970667358221220cd643547b3e49cc6970cafe4dd7421e0aa60622cb47f7ba10ea5c4df86c6472464736f6c63430006030033",
  "source": "// SPDX-License-Identifier: GPL-3.0\n\npragma solidity ^0.6.1;\npragma experimental ABIEncoderV2;\n\ncontract Wallet {\n    address[] public approvers;\n    uint public quorum;\n\n    struct Transfer {\n        uint id;\n        uint amount;\n        address payable to;\n        uint approvals;\n        bool sent;\n    }\n\n    Transfer[] public transfers;\n    mapping(address => mapping(uint => bool)) public approvals;\n\n    constructor(address[] memory _approvers, uint _quorum) public {\n        approvers = _approvers;\n        quorum = _quorum;\n    }\n\n    function getApprovers() external view returns(address[] memory){\n        return approvers;\n    }\n\n    function getTransfers() external view returns (Transfer[] memory){\n        return transfers;\n    }\n\n    function createTransfer(uint amount, address payable to) external onlyApprover() {\n    transfers.push(Transfer(\n      transfers.length,\n      amount,\n      to,\n      0,\n      false\n    )\n    );\n    }\n\n\n    function approveTransfer(uint id) external onlyApprover() {\n        require(transfers[id].sent == false, \"transfer has already been sent\");\n        require(approvals[msg.sender][id]== false, \"cannot approve transfer twice\");\n\n      approvals[msg.sender][id] = true;\n      transfers[id].approvals++;\n\n        if(transfers[id].approvals >= quorum){\n            transfers[id].sent = true;\n            address payable to = transfers[id].to;\n            uint amount = transfers[id].amount;\n            to.transfer(amount);\n            return;\n        }\n    }\n\n    receive() external payable {}\n\n      modifier onlyApprover() {\n      bool allowed = false;\n      for(uint i = 0; i < approvers.length; i++){\n          if(approvers[i] == msg.sender) {\n              allowed = true;\n          }\n      }\n\n      require(allowed == true, \"only approver allowed\");\n      _;\n  }\n}",
  "sourcePath": "/Users/miriamdong/lighthouse/w11-final/Defi/Blockchain/contracts/MyWallet.sol",
  "compiler": {
    "name": "solc",
    "version": "0.6.3+commit.8dda9521.Emscripten.clang"
  },
  "schemaVersion": "3.4.1",
  "updatedAt": "2021-05-17T01:59:21.348Z",
  "devdoc": {
    "methods": {}
  },
  "userdoc": {
    "methods": {}
  }
}